:100000000C9446000C945D000C945D000C945D0013
:100010000C945D000C945D000C945D000C945D00EC
:100020000C945D000C945D000C945D000C945D00DC
:100030000C945D000C945D000C945D000C945D00CC
:100040000C945D000C945D000C945D000C945D00BC
:100050000C945D000C945D000C945D000C945D00AC
:100060000C945D000C945D000C945D000C945D009C
:100070000C945D000C945D000C945D000C945D008C
:100080000C945D000C945D000C945D0011241FBE67
:10009000CFEFD0E1DEBFCDBF11E0A0E0B1E0EEEEEA
:1000A000F0E000E00BBF02C007900D92A030B10756
:1000B000D9F70E945F000C9475000C94000081E059
:1000C0008ABB41E029E130E04BBB80E593ECF901CC
:1000D0003197F1F70197D9F71BBA80E593ECF90155
:0E00E0003197F1F70197D9F7EFCFF894FFCFE2
:00000001FF
