:100000000C942A000C9434000C9434000C943400AA
:100010000C9434000C9434000C9434000C94340090
:100020000C9434000C9434000C9434000C94340080
:100030000C9434000C9434000C9434000C94340070
:100040000C9434000C9434000C9434000C94340060
:100050000C94340011241FBECFE5D4E0DEBFCDBF29
:100060000E9436000C945D000C94000083E084BB79
:1000700051E029E130E042E055BB80E593ECF90125
:100080003197F1F70197D9F715BA80E593ECF901AB
:100090003197F1F70197D9F745BB80E593ECF9016A
:1000A0003197F1F70197D9F715BA80E593ECF9018B
:0E00B0003197F1F70197D9F7DFCFF894FFCF22
:00000001FF
