:100000000C942A000C943C000C943C000C943C0092
:100010000C943C000C943C000C943C000C943C0070
:100020000C943C000C943C000C943C000C943E005E
:100030000C943C000C943C000C943C000C943C0050
:100040000C943C000C943C000C943C000C943C0040
:100050000C943C0011241FBECFE5D4E0DEBFCDBF21
:1000600010E0A0E6B0E001C01D92A136B107E1F7B3
:100070000E945F000C947B000C9400001F920F9272
:100080000FB60F9211248F938CB1809360008091F2
:100090006000809588BB8F910F900FBE0F901F90CE
:1000A00018958CE089B910BC88E98AB908955D9BE0
:1000B000FECF8CB908955F9BFECF8CB1089580E18F
:1000C00097E228EC30E0F9013197F1F70197D9F781
:1000D0008CE089B910BC88E98AB980E29EE428ECFA
:1000E00030E0F9013197F1F70197D9F75D9BFECF29
:0A00F00081E48CB90895F894FFCF65
:00000001FF
