:100000000C942A000C9434000C9434000C943400AA
:100010000C9434000C9434000C9434000C94340090
:100020000C9434000C9434000C9434000C94340080
:100030000C9434000C9434000C9434000C94340070
:100040000C9434000C9434000C9434000C94340060
:100050000C94340011241FBECFE5D4E0DEBFCDBF29
:100060000E9442000C947A000C94000087E689B943
:1000700010BC86E880BD88ED8AB908955F9BFECFED
:100080008CB1089587E689B910BC86E880BD88EDFB
:100090008AB983E08ABB49E150E062E031E05F9BCE
:1000A000FECF2CB188E893E1FA013197F1F701977F
:1000B000D9F72223A1F36BBB88E893E1FA013197CA
:1000C000F1F70197D9F71BBA213349F43BBB80E222
:1000D0009EE4FA013197F1F70197D9F7E0CF223387
:1000E000F1F61BBA80E29EE4FA013197F1F701972D
:0800F000D9F7D5CFF894FFCF3A
:00000001FF
